:100000000C947C000C949D000C949D000C949D001D
:100010000C949D000C949D000C949D000C949D00EC
:100020000C949D000C949D000C949D000C949D00DC
:100030000C949D000C949D000C949D000C949D00CC
:100040000C949D000C940A050C949D000C949D004A
:100050000C949D000C9421050C949D000C949D0023
:100060000C949D000C949D000C949D000C949D009C
:100070000C949D000C949D000C949D000C949D008C
:100080000C949D000C949D000C949D000C949D007C
:100090000C949D000C949D000C949D000C949D006C
:1000A0000C949D000C949D000C949D000C949D005C
:1000B0000C949D000C949D000C949D000C949D004C
:1000C0000C949D000C949D000C949D000C949D003C
:1000D0000C949D000C949D000C949D000C949D002C
:1000E0000C949D000C94A0000C94D5000C94A100DD
:1000F0000C949F000C94B10311241FBECFEFD1E2EA
:10010000DEBFCDBF00E00CBF14E0A0E0B2E0EAE04B
:10011000FFE200E00BBF02C007900D92AA33B107C7
:10012000D9F725E0AAE3B4E001C01D92AA38B207CE
:10013000E1F70E94D3100C9483170C940000FFCFBA
:10014000FFCFFFCF0E945D018F3F21F08E36C1F0BF
:10015000803709F00895E0914004F09141048085D2
:10016000918590934104809340040E94B50360936D
:100170003C0470933D0480933E0490933F040895A3
:10018000E0914004F091410486819781909341046D
:10019000809340040E94B50360933C0470933D0437
:1001A00080933E0490933F0408950E94A20081E250
:1001B0000E945F0361E081E00E94DE028AE392E038
:1001C0000E94720161E082E00E94DE0284E492E01B
:1001D0000E94720161E082E00E94DE02E091400430
:1001E000F0914104848195810E94720161E083E075
:1001F0000E94DE0281E992E00E947201E0914004D7
:10020000F091410462857385848595850E941C0266
:1002100061E084E00E94DE028FE992E00E947201B8
:100220000E94B50300913C0410913D0420913E04CE
:1002300030913F04601B710B820B930B0E941C02D8
:1002400061E085E00E94DE0280E20E945F038EEAA8
:1002500092E00E9472010E94B5030E941C0261E0BC
:1002600086E00E94DE0284E20E945F0385EB92E05A
:100270000E9472010E941F0490E00E94850161E0CB
:1002800089E00E94DE0285E20E945F030E94220450
:100290008CCF82E08093C0001092C50080E18093F3
:1002A000C400E1ECF0E08081886180830895809152
:1002B000C000881F8827881F08958091C00087FD8F
:1002C00002C08FEF08958091C60008959091C100FB
:1002D00095FDFCCF9091C00095FFF8CF8093C600AC
:1002E00081E00895FC012081222371F031968091F4
:1002F000C10085FDFCCF8091C00085FFF8CF209321
:10030000C60021912111F3CF0895CF93DF93EC0123
:100310008A30910570F4C05D8091C10085FDFCCFED
:100320008091C00085FFF8CFC093C600DF91CF91C8
:1003300008959C01ADECBCEC0E94861296958795C1
:1003400096958795969587959C01220F331FAC0152
:10035000440F551F440F551F440F551F240F351FC1
:10036000C21BD30B0E948501D6CF1F93CF93DF937F
:10037000FC01009709F145E011E02FE037E2E901C7
:100380002196CF01BE010E943C12662331F12E1747
:100390003F0708F44FC0605D8091C10085FDFCCF30
:1003A0008091C00085FFF8CF6093C60010E02AC09E
:1003B0008091C00085FD09C08091C10085FFF8CF04
:1003C0008091C10085FDF8CFF3CF80E38093C60014
:1003D00081E0DF91CF911F9108952E173F0728F5F7
:1003E00011110BC0605D8091C10085FDFCCF809133
:1003F000C00085FFF8CF6093C600CF01BE010E9408
:100400003C12FC01ADECBCEC0E9486129C013695BE
:1004100027953695279536952795415009F0AFCF0A
:100420008E2FDF91CF911F910895112309F4B3CF3F
:1004300011E0E8CF10E0D6CF8F929F92AF92BF929B
:10044000CF92DF92EF92FF926B017C018AE0C81697
:10045000D104E104F104A8F490E39C0D8091C10063
:1004600085FDFCCF8091C00085FFF8CF9093C6003A
:10047000FF90EF90DF90CF90BF90AF909F908F90C4
:100480000895C701B6012AE030E040E050E00E9444
:10049000641249015A01880C991CAA1CBB1CD50185
:1004A000C401880F991FAA1FBB1F880F991FAA1F7D
:1004B000BB1F880D991DAA1DBB1DC81AD90AEA0ABF
:1004C000FB0AC9010E948501C7CFCF93DF93EC01DE
:1004D00080319105F8F4CA30D10570F4C05D809187
:1004E000C10085FDFCCF8091C00085FFF8CFC0938F
:1004F000C600DF91CF910895C95C8091C10085FD50
:10050000FCCF8091C00085FFF8CFC093C600DF917B
:10051000CF910895929582958F7089279F70892732
:100520009C0122953295307F3227207F3227C21BD3
:10053000D30B0E946502CFCFCF92DF92EF92FF9252
:100540006B017C01603171058105910540F58AE000
:10055000C816D104E104F10488F490E39C0D809165
:10056000C10085FDFCCF8091C00085FFF8CF90933E
:10057000C600FF90EF90DF90CF90089597E39C0D19
:100580008091C10085FDFCCF8091C00085FFF8CF30
:100590009093C600FF90EF90DF90CF90089524E0F5
:1005A00096958795779567952A95D1F72FE0C22282
:1005B000DD24EE24FF240E949C02C9CFCF93DF9359
:1005C0001F92CDB7DEB79091C10095FDFCCF909101
:1005D000C00095FFF8CF9BE19093C6009091C100B9
:1005E00095FDFCCF9091C00095FFF8CF9BE59093CF
:1005F000C60090E069830E94850169819091C100E5
:1006000095FDFCCF9091C00095FFF8CF8BE38093D0
:10061000C600862F90E00E9485018091C10085FD73
:10062000FCCF8091C00085FFF8CF88E48093C6009E
:100630000F90DF91CF9108958091C10085FDFCCF8F
:100640008091C00085FFF8CF8BE18093C600809138
:10065000C10085FDFCCF8091C00085FFF8CF8BE500
:100660008093C6008091C10085FDFCCF8091C000C1
:1006700085FFF8CF8FE38093C6008091C10085FD90
:10068000FCCF8091C00085FFF8CF82E38093C60045
:100690008091C10085FDFCCF8091C00085FFF8CF1F
:1006A00085E38093C6008091C10085FDFCCF8091D9
:1006B000C00085FFF8CF88E68093C600089590912A
:1006C000C10095FDFCCF9091C00095FFF8CF9BE154
:1006D0009093C6009091C10095FDFCCF9091C00011
:1006E00095FFF8CF9BE59093C60090E00E948501AE
:1006F0008091C10085FDFCCF8091C00085FFF8CFBF
:100700008DE68093C60008958091C10085FDFCCFE1
:100710008091C00085FFF8CF8BE18093C600809167
:10072000C10085FDFCCF8091C00085FFF8CF8BE52F
:100730008093C6008091C10085FDFCCF8091C000F0
:1007400085FFF8CF82E38093C6008091C10085FDCC
:10075000FCCF8091C00085FFF8CF8AE48093C6006B
:1007600008957894C701F801099460911805709173
:10077000190580911A0590911B052EEC36E540E095
:1007800050E00E946412CA01B90108950F931F93AB
:10079000CF93DF93082F40911705842F90E02AE133
:1007A000429FF0011124EA5BFB4F011122C07091BE
:1007B00016057723F1F0ABE5B4E060E041E050E0EE
:1007C00004C06F5F5A966717A1F013962D913C9164
:1007D000149722303105A9F72C9121502C93211127
:1007E000F0CF14965C934E9313976F5F5A966713EE
:1007F000ECCF208D318D21303105A1F0C09116054F
:10080000D0E01AE101C090E00196BE010E945012B2
:10081000819FF0011124EA5BFB4F208D318D213047
:10082000310589F7011105C0868997890196978B53
:10083000868B8281DF91CF911F910F9108958091D6
:1008400016050895AF92BF92DF92EF920F931F9318
:10085000CF93DF9380911605882309F49DC008E0AB
:10086000E12C8AE1D82E61E0802F0E94DE0289EC23
:1008700092E00E947201AE2CB12CC5010E9485014C
:1008800061E081E0800F0E94DE0285ED92E00E942F
:100890007201DA9CE001DB9CD00D1124CE01875B54
:1008A0009B4F0E94720161E082E0800F0E94DE0295
:1008B00083EE92E00E947201CA5BDB4F8D859E85BC
:1008C0000E94650229893A8948815981241B350B88
:1008D0001FEF120F61E083E0800F0E94DE0281EFC4
:1008E00092E00E947201812F90E00E9485018FEFBB
:1008F00092E00E94720161E084E0800F0E94DE02BB
:1009000086E093E00E9472018B899C890E94850198
:100910008FEF92E00E94720161E085E0800F0E94FB
:10092000DE0283E193E00E947201888199810E9436
:10093000650261E086E0800F0E94DE028CE293E0B7
:100940000E9472018F8598890E94650261E087E0AC
:10095000800F0E94DE028BE393E00E94720189897E
:100960009A890E94650261E088E0800F0E94DE02A1
:1009700089E493E00E9472018E899F890E9485011B
:1009800061E089E0800F065F0E94DE02E3948091BF
:100990001605E81608F467CFDF91CF911F910F91EC
:1009A000EF90DF90BF90AF9008952F923F924F92BB
:1009B0005F926F927F928F929F92AF92BF92CF92EF
:1009C000DF92EF92FF920F931F93CF93DF93F0E0AC
:1009D000EDE511912081E62FF72F11932083E82F69
:1009E000F92F11912081F0E0EDE511932083DF9143
:1009F000CF911F910F91FF90EF90DF90CF90BF901C
:100A0000AF909F908F907F906F905F904F903F90AE
:100A10002F9008951F920F920FB60F9211248F936B
:100A20009F938091440490914504019690934504CE
:100A3000809344049F918F910F900FBE0F901F9051
:100A400018951F920F920FB60F9211240BB60F92AA
:100A50001F932F933F934F935F936F937F938F9346
:100A60009F93AF93BF93CF93DF93EF93FF93C7E130
:100A7000D5E0188180E00E94C603E8E1F5E04081FE
:100A80005181628173814F5F5F4F6F4F7F4F408312
:100A900051836283738388839AE1919FB00111240B
:100AA0006A5B7B4F21E030E0FB01318F208F989F04
:100AB000C00111248A5B9B4FFC01118E108E0E9495
:100AC000D504FF91EF91DF91CF91BF91AF919F91AD
:100AD0008F917F916F915F914F913F912F911F91D6
:100AE0000F900BBE0F900FBE0F901F901895109295
:100AF00016058FEF809317051092180510921905AF
:100B000010921A0510921B05E6E4F4E081E090E0F3
:100B100016861586108A178611821082918F808F13
:100B20007A9625E0E631F20799F70895CF93DF939F
:100B30001F921F92CDB7DEB71092170510925F0477
:100B400010925E040E94B4077894BE016F5F7F4FDD
:100B500086E494E00E94D5040F900F90DF91CF912E
:100B60000895AF92BF92CF92DF92EF92FF920F93D0
:100B70001F93CF93DF931F921F92CDB7DEB76B0108
:100B8000790106E115E0D8012C913AE1A32EA29E4D
:100B9000D0011124FD01EA5BFB4F2283BC01CD0192
:100BA000875B9B4F49835A830E94F713F80180812A
:100BB000A89E50011124C5018A5B9B4F5C01DC019A
:100BC0001D96CC921D971E96DC92BCE4EB0EF11C98
:100BD000FC01F48AE38AC7010E94BC12D501509639
:100BE0009C938E931F97FC01EE0DFF1D5296FC9374
:100BF000EE93519778971196FC93EE9357961C922B
:100C00001E92569781EB93E0858B948B138AC48256
:100C1000D382498146835A815583F80180818F5F51
:100C200080830F900F90DF91CF911F910F91FF90D4
:100C3000EF90DF90CF90BF90AF900895CF93F8944E
:100C4000C091170581E00E94C603809317052C2FE1
:100C500030E09AE1C99FF0011124EA5BFB4F408D1F
:100C6000518D452B21F441E050E0518F408F4AE1F6
:100C7000489FC00111248A5B9B4FFC01118E108E8E
:100C8000429FB001439F700D11246A5B7B4F0E940D
:100C9000D5047894CF910895009709F40895E091D0
:100CA00017052AE1E29FF0011124EA5BFB4F858BD7
:100CB00082E090E0918F808F0C941E068091170542
:100CC00008959AE1899FF0011124EA5BFB4F718F2F
:100CD000608F08952AE1829FC00111248A5B9B4F97
:100CE0000895FC01F8948FEF9FEF91838083118A20
:100CF000108A27E030E093838283215031093296B5
:100D000021153105C1F7789408950F931F93CF9360
:100D1000DF93EC01F89488819981019601F10889AB
:100D200019890E945E06F8013196EE0FFF1FEC0F45
:100D3000FD1F90E091838083888999890196998B22
:100D4000888B0E945E0663E070E00E9461060E944C
:100D50001E067894DF91CF911F910F9108950E9404
:100D60005E0690E0998388837894DF91CF911F91FC
:100D70000F910895CF93DF93EC01F89488899989B6
:100D8000892B41F48FEF9FEF998388837894DF91CB
:100D9000CF9108958A819B818883998361E070E077
:100DA0000E946106FE01329620E030E0828193814C
:100DB000819391932F5F3F4F26303105B9F78FEF25
:100DC0009FEF9F878E87888999890197998B888B58
:100DD0007894DF91CF910895FC01F894772767FD0F
:100DE000709571836083118A108A27E08FEF9FEFDF
:100DF00093838283215032962111FACF78940895FB
:100E00000F931F93CF93DF93EC01F89428813981DE
:100E1000215031093983288337FD06C07894DF914A
:100E2000CF911F910F910895088919890F5F1F4F66
:100E3000198B088B0E945E06F801EE0FFF1FEC0F66
:100E4000FD1F90E0918380830E945E0663E070E066
:100E50000E9461060E941E067894DF91CF911F9137
:100E60000F910895CF93DF93EC01F8942881398195
:100E70002F5F3F4F398328831216130624F478948A
:100E8000DF91CF91089561E070E08A810E94610650
:100E9000FE01329620E030E082819381819391932C
:100EA0002F5F3F4F26303105B9F78FEF9FEF9F87B8
:100EB0008E877894DF91CF910895FF920F931F93BF
:100EC000CF93DF93EC01F894288139812F5F3F4F56
:100ED00039832883121613063CF47894DF91CF915E
:100EE0001F910F91FF900895FA800E945E060E9464
:100EF0006A068C0121E030E0FC01318F208F60E038
:100F000070E08F2D0E946106FE01329620E030E0F5
:100F100042815381419351932F5F3F4F26303105DA
:100F2000B9F72FEF3FEF3F872E878F2D0E946A067C
:100F3000B8010E94D5047894DF91CF911F910F9151
:100F4000FF900895FC0120E030E0428153814193FD
:100F500051932F5F3F4F26303105B9F72FEF3FEF09
:100F6000FC01358724870895EEE6F0E080818260F9
:100F7000808384B5826084BD85B5826085BD8AE545
:100F800087BD89E09DE39093890080938800EFE618
:100F9000F0E0808182608083E1E8F0E080818D6014
:100FA00080830895E0EBF0E0808183628083E1EB51
:100FB000F0E0808181608083E1E0F1E08081806405
:100FC00080830895CF93DF93C8E8D5E028813981E5
:100FD00044E250E061E070E087E593E00E945B143A
:100FE000288139814DE250E061E070E08CE793E0C8
:100FF000DF91CF910C945B14CF92DF92EF92FF922E
:101000000F931F93CF93DF93EC0141505109610976
:10101000710900914B0510914C0520914D053091BF
:101020004E05CB01BA01A90198010E9464126B011F
:101030007C01FB01F695FE2FEE27F795E795E0780A
:10104000F170609143057091440580914505909140
:1010500046050E942C126B5F7F4F8F4F9F4F660F8C
:10106000771F881F991F9701860136952795179539
:10107000079536952795179507952F773327600F96
:10108000711F821F931F00E810E09E01AF010E94B4
:101090003D0FDF91CF911F910F91FF90EF90DF9067
:1010A000CF9008952F923F924F925F926F927F92CE
:1010B0008F929F92AF92BF92CF92DF92EF92FF9268
:1010C0000F931F93CF93DF93CDB7DEB7C350D440B8
:1010D0000FB6F894DEBF0FBECDBF4C01CD5FDB4F26
:1010E0006883C350D440272EE62FF72FDF010D90E1
:1010F0000020E9F78D01015011090E1B1F0BB801EB
:1011000081E090E00E94A0123C01A801CD5FDB4F7E
:101110006881C350D440722D0E94FE135E01BFEF60
:10112000AB1ABBEFBB0A8FE290E0F501918380839D
:10113000B501C3010E94E3136C01009709F465C077
:10114000312CD40198966D917D918D919C919B97B6
:10115000660F771F881F991F00E014E09E012F5F24
:101160003F4F40E050E00E943D0F8E010F5F1F4F48
:101170000BC0C7010E945413F80184819581080FA8
:10118000191F0A151B0541F1F80146805780B2016D
:1011900081E090E00E94A0127C01A201B801685F8A
:1011A0007F4F0E94FE13B701C6010E94EE13892BE8
:1011B00001F7D8014D915D916D917C91C4010E9420
:1011C000FC07B50180E090E00E94E3136C010097FA
:1011D000E1F033243394B5CF3110F3CF2F92CD5FAC
:1011E000DB4FF881C350D440FF938AEA93E09F938A
:1011F0008F93809189058F93809188058F930E94AA
:101200004B1481E090E00E948317C301CD5FDB4F58
:101210000FB6F894DEBF0FBECDBFDF91CF911F9107
:101220000F91FF90EF90DF90CF90BF90AF909F9085
:101230008F907F906F905F904F903F902F900C9485
:101240005413EF92FF920F931F93CF93DF938C0170
:10125000EB01209771F120E030E064E1F62E75E1BA
:10126000E72E01C0F82EF801E20FF31F80819927C5
:1012700087FD90950E94AF148FEF8F0D2E2D2F19A3
:1012800030E02C173D0770F3CEEFCF0D811102C077
:1012900009C0C82F80E290E00E94AF148FEF8C0F3E
:1012A000C111F7CFDF91CF911F910F91FF90EF9078
:1012B0000895C3E1EFCF4F925F926F927F928F922A
:1012C0009F92AF92BF92CF92DF92EF92FF920F93D5
:1012D0001F93CF93DF93CDB7DEB7DC500FB6F894F2
:1012E000DEBF0FBECDBF6E0124ECC21A23EFD20ABF
:1012F0005E0184E9A81A83EFB80AFE01EF5FF34F9D
:101300007F01F60161917191819191916F01660F59
:10131000771F881F991F00E014E09E012F5F374F51
:1013200040E050E00E943D0F8E010F5F174FF80123
:1013300081918F0190E00E94AF140E151F05B9F73F
:10134000CA14DB04F1F6C85ED34F88819981AA8163
:10135000BB81C851DC4081159043A105B105B8F4AB
:10136000D45F0FB6F894DEBF0FBECDBFDF91CF9133
:101370001F910F91FF90EF90DF90CF90BF90AF90B3
:101380009F908F907F906F905F904F900895C0597D
:10139000D34F488059806A807B80C057DC40440C22
:1013A000551C661C771C00E014E09E012F5F3B4F2C
:1013B00040E050E0C301B2010E943D0F5E0123E016
:1013C000A21A28EFB20ACE018F5F9B4F6C01F60183
:1013D00061917191819191916F01660F771F881FC3
:1013E000991F00E014E09E012F5F374F40E050E06E
:1013F0000E943D0F8E010F5F174FF80181918F0101
:1014000090E00E94AF14E016F106B9F7CA14DB04AD
:10141000F1F600E014E09E012F5F3F4F40E050E006
:10142000C301B2010E943D0FCE0101964C013E0165
:1014300093E0691A9CEF790AF401619171918191AD
:1014400091914F01660F771F881F991F00E014E0EC
:101450009E012F5F3B4F40E050E00E943D0FCE01C8
:101460008F5F9B4F6C01F601619171918191919118
:101470006F01660F771F881F991F00E014E09E011F
:101480002F5F374F40E050E00E943D0F8E010F5F0D
:10149000174FF80181918F0190E00E94AF140E1553
:1014A0001F05B9F7CA14DB04F1F68614970421F678
:1014B00057CF0F931F93CF93DF93CDB7DEB78C85B4
:1014C0009D852E853F85088519850027107F01158C
:1014D00040E41407C1F1011540E81407E1F03F931F
:1014E0002F939F938F9389ED93E09F938F930E9407
:1014F0009D140F900F900F900F900F900F901B87DF
:101500000A878CED93E099878887DF91CF911F91AF
:101510000F910C949D143F932F939F938F938BEC7B
:1015200093E09F938F930E949D140F900F900F90C4
:101530000F900F900F908FEC93E0DF91CF911F9160
:101540000F910C94B51488EB93E09F938F930E94B6
:101550009D140F900F9081EC93E0EFCF5F926F920C
:101560007F928F929F92AF92BF92CF92DF92EF9233
:10157000FF920F931F93CF93DF93CDB7DEB7C05881
:10158000DC400FB6F894DEBF0FBECDBF7E0125E470
:10159000E21A23EFF20A6E0185E1C81A83EFD80A36
:1015A000B0E8BB2EF70161917191819191917F011A
:1015B000660F771F881F991F00E014E09E012F5FC0
:1015C000374F40E050E00E943D0FCF5FD74F8881FA
:1015D0009981AA81BB81C150D840892B8A2B8B2B42
:1015E000E9F18E010F5F174FF80166817781C8011D
:1015F00008960E942109F80140815181628173811E
:10160000CE018F5F934F0E94FC078DB79EB7805825
:1016100091090FB6F8949EBF0FBE8DBFADB7BEB790
:101620001196FE01EF5FF34F8B2D01900D928A957D
:10163000E1F70E94590AF80184819581080F191F6A
:101640000FB6F894DEBF0FBECDBFF8018081918147
:10165000A281B381892B8A2B8B2B31F6EC14FD04EC
:1016600009F0A0CFC956D34F88819981AA81BB8147
:10167000C759DC4081159043A105B105B8F4C058A5
:10168000D34F0FB6F894DEBF0FBECDBFDF91CF9121
:101690001F910F91FF90EF90DF90CF90BF90AF9090
:1016A0009F908F907F906F905F900895F701608179
:1016B000718182819381660F771F881F991F00E0D7
:1016C00014E09E012F5F3B4F40E050E00E943D0F31
:1016D0005E01F3E0AF1AF8EFBF0ACE018F5F9B4FB8
:1016E0006C01FE01EF5FF34F7F01F0E89F2EF601E2
:1016F00061917191819191916F01660F771F881FA0
:10170000991F00E014E09E012F5F374F40E050E04A
:101710000E943D0F8E010F5F174FF80166817781A0
:10172000C80108960E942109F80140815181628117
:101730007381C7010E94FC078DB79EB7805891093D
:101740000FB6F8949EBF0FBE8DBFADB7BEB7119652
:10175000F701892D01900D928A95E1F70E94590AAF
:10176000F80184819581080F191F0FB6F894DEBF28
:101770000FBECDBF0E151F0581F6CA14DB0409F09C
:10178000B6CFC151D34F688179818A819B81CF5E69
:10179000DC40660F771F881F991F00E014E09E0150
:1017A0002F5F3F4F40E050E00E943D0FFE01319619
:1017B0004F013E01F3E06F1AFCEF7F0A40E8542E20
:1017C000F40161917191819191914F01660F771FA1
:1017D000881F991F00E014E09E012F5F3B4F40E0FF
:1017E00050E00E943D0FCE018F5F9B4F6C01F601D0
:1017F00061917191819191916F01660F771F881F9F
:10180000991F00E014E09E012F5F374F40E050E049
:101810000E943D0F8E010F5F174FF801668177819F
:10182000C80108960E942109F80140815181628116
:101830007381C7010E94FC078DB79EB7805891093C
:101840000FB6F8949EBF0FBE8DBFADB7BEB7119651
:10185000F701852D01900D928A95E1F70E94590AB2
:10186000F80184819581080F191F0FB6F894DEBF27
:101870000FBECDBF0E151F0581F6CA14DB0409F09B
:10188000B6CF8614970409F09BCFF9CEEF92FF9262
:101890000F931F93CF93DF93CDB7DEB7C058D10915
:1018A0000FB6F894DEBF0FBECDBF9C0122503109A8
:1018B0002330310508F096C0029709F051C024E5A5
:1018C00030E043E255E060E070E082E090E00E94AA
:1018D0003D0F42E050E060E070E08E010F5F1F4F6F
:1018E000C8010E94FC0729813A812227307F2115F7
:1018F000F0E43F0709F458C02115F0E83F0709F06C
:1019000077C08DB79EB7805891090FB6F8949EBFE7
:101910000FBE8DBFADB7BEB7119680E8F80101903C
:101920000D928A95E1F70E945B090FB6F894DEBF2D
:101930000FBECDBF80917705909178050E94341439
:1019400080E090E0C058DF4F0FB6F894DEBF0FBEC6
:10195000CDBFDF91CF911F910F91FF90EF90089530
:10196000FB01E480F58024E530E043E255E060E0EF
:1019700070E082E090E00E943D0F42E050E060E0C5
:1019800070E08E010F5F1F4FC8010E94FC0761EFDE
:1019900073E0C7010E94EE13892B09F4A4CFB701AD
:1019A000C8010E9452089FCF83EF93E00E94B514B4
:1019B0008DB79EB7805891090FB6F8949EBF0FBEA1
:1019C0008DBFADB7BEB7119680E8F80101900D92BA
:1019D0008A95E1F70E94AE0A0FB6F894DEBF0FBEFB
:1019E000CDBFA8CF0E94E20781E090E00E9483175C
:1019F0003F932F9389E194E09F938F938091890582
:101A00008F93809188058F930E944B148091770566
:101A1000909178050E94341481E090E00E94831731
:101A20008FEF8EBD80917E0590917F059C012F5F89
:101A30003F4F30937F0520937E058130924098F48C
:101A40004FEF0DB407FEFDCF4EBD80917E05909106
:101A50007F059C012F5F3F4F30937F0520937E05CC
:101A60008130924070F30DB407FEFDCF289A8FEFBE
:101A70008EBD0DB407FEFDCF10921E0508958EBDDC
:101A80000DB407FEFDCF08958FEF8EBD0DB407FE98
:101A9000FDCF8EB50895289A8FEF8EBD0DB407FE49
:101AA000FDCF089528980895809320050895809388
:101AB000200560931F050895CF93DF931F92CDB744
:101AC000DEB790911E05992321F089830E94100DA5
:101AD000898180931D050F90DF91CF9108958091AA
:101AE0001C05089580931C0508950F931F93CF93B1
:101AF000DF9300D01F921F92CDB7DEB790911E05E5
:101B0000911159C0289808EC17E924E030E0EFEF74
:101B1000EEBD0DB407FEFDCF9EB59F3F69F09AE084
:101B20009A95F1F700C001501109210931090115F9
:101B300011052105310561F7982F90649EBD0DB404
:101B400007FEFDCFE8E1F0E08A019B010E2E04C004
:101B500036952795179507950A94D2F70EBD0DB4C3
:101B600007FEFDCF3897E83F9FEFF90769F7882315
:101B7000A1F08830F1F487E88EBD0DB407FEFDCFEB
:101B800090E02FEF2EBD0DB407FEFDCF8EB587FF81
:101B900006C09F3F21F09F5FF5CF85E9EDCF0F9005
:101BA0000F900F900F900F90DF91CF911F910F9199
:101BB00008958FEFE1CF4A835B836C837D838983B4
:101BC0000E94100D89817D816C815B814A819ACF51
:101BD000CF92DF92EF92FF921F93CF93DF93C82FA4
:101BE000209A289A229A219A83E58CBD2AE030E037
:101BF0008FEF8EBD0DB407FEFDCF215031092115A9
:101C00003105B9F7289821E032E09FEF9EBD0DB471
:101C100007FEFDCF8EB52150310921153105B1F7F1
:101C2000DBE040E050E0BA0180E00E94750D182F23
:101C3000813081F0D150A9F781E080932005109385
:101C40001F058D2FDF91CF911F91FF90EF90DF90B7
:101C5000CF9008954AEA51E060E070E088E00E9489
:101C6000750D813009F450C082FF48C010931C05E7
:101C700088E6C82E88E8D82E8EE1E82EF12C13C015
:101C800040E050E0BA0189E20E94750D882311F10D
:101C900081E0C81AD108E108F108C114D104E104B7
:101CA000F10409F447C08AE08A95F1F700C040E0EA
:101CB00050E0BA0187E30E94750D80911C058230C7
:101CC000F9F640E050E060E070E489E20E94750DB2
:101CD0008111DECF80911C058230A9F18CB58C7FFB
:101CE0008CBDC11103C08DB581608DBD289A8FEF69
:101CF0008EBD0DB407FEFDCFD1E0A3CF92E090934F
:101D0000200580931F05B4CF24E030E09FEF9EBDF7
:101D10000DB407FEFDCF8EB52150310921153105D7
:101D2000B1F78A3A61F099E09093200580931F05FE
:101D3000D0E087CF86E080932005D0E082CF82E09C
:101D400080931C0595CF40E050E0BA018AE30E94E1
:101D5000750D81111AC08FEF8EBD0DB407FEFDCF3A
:101D60008EB5807C803C19F483E080931C0523E0D1
:101D700030E08FEF8EBD0DB407FEFDCF9EB5215034
:101D8000310921153105B1F7A9CF85E080932005F0
:101D9000D0E057CF80911E0581110C94100D08954D
:101DA0004F925F926F927F928F929F92AF92BF926B
:101DB000CF92DF92EF92FF92CF93C12CD12C76017C
:101DC000CFEF28EE422E23E0522E612C712C4C01D5
:101DD000A12CB12CCEBD0DB407FEFDCF8EB58F3F2B
:101DE00019F18FEFC81AD80AE80AF80A8AE08A952A
:101DF000F1F700C0C701B601A30192010E9464126D
:101E000082169306A406B50628F780E0CF91FF90CE
:101E1000EF90DF90CF90BF90AF909F908F907F908A
:101E20006F905F904F90089581E0F0CF88EC97E934
:101E3000A4E0B0E03FEF3EBD0DB407FEFDCF2EB5F0
:101E40002F3F81F42AE02A95F1F700C00197A109FC
:101E5000B1090097A105B10571F78DE080932005C8
:101E600080E008952E3F39F080E180932005209393
:101E70001F0580E0089581E00895AF92BF92CF9250
:101E8000DF92EF92FF920F931F93CF93DF931F92F6
:101E90001F92CDB7DEB75A010115110509F494C0A0
:101EA000A8014A0D5B1D4130524028F540911E05A6
:101EB00041118CC060937A0570937B0580937C05FB
:101EC00090937D0540911C05433039F049E0660F41
:101ED000771F881F991F4A95D1F7AB01BC0181E19B
:101EE00029833A830E94750D29813A81882389F0DC
:101EF00083E08093200580E00F900F90DF91CF91D9
:101F00001F910F91FF90EF90DF90CF90BF90AF9017
:101F1000089529833A830E94160F29813A818823E4
:101F200051F310927F0510927E0581E080931E058B
:101F30008FEF8EBD80917E0590917F058A159B0560
:101F400088F44FEF0DB407FEFDCF4EBD80917E05A6
:101F500090917F05019690937F0580937E058A1569
:101F60009B0580F3A801415051094115510571F0BD
:101F7000F90180E090E07FEF0DB407FEFDCF6EB574
:101F800061937EBD019684179507B0F30DB407FEEB
:101F9000FDCF8EB5F901E40FF51F808380917E059A
:101FA00090917F05800F911F90937F0580937E0510
:101FB00020911D05222319F08115924028F080916F
:101FC0001E0581110E94100D81E096CFC0907A0508
:101FD000D0907B05E0907C05F0907D056C157D052B
:101FE0008E059F0509F066CF40917E0550917F05D3
:101FF000A416B50608F09CCF5DCF0F931F939A01EE
:1020000000E012E040E050E00E943D0F1F910F9170
:102010000895CF93DF93D62FC72F40E050E0BA0149
:102020000E94750D882339F088E08093200580E0B8
:10203000DF91CF9108950E94160F882329F1ED2F8B
:10204000FC2F80E090E03FEF3EBD0DB407FEFDCFDA
:102050002EB52193019680319105B1F78FEF8EBD9A
:102060000DB407FEFDCF8EB58FEF8EBD0DB407FE0C
:10207000FDCF8EB5289A8FEF8EBD0DB407FEFDCF34
:1020800081E0DF91CF91089580E0DF91CF910895B5
:102090000F931F93CF93DF93CDB7DEB760970FB643
:1020A000F894DEBF0FBECDBFBE016F5F7F4F89E0EA
:1020B0000E940910882309F447C08981807CA1F01F
:1020C000803409F445C087E08093200560E070E02B
:1020D000CB0160960FB6F894DEBF0FBECDBFDF9187
:1020E000CF911F910F9108956F81637070E0762FEB
:1020F0006627770F770F888590E0880F991F880FE4
:10210000991F682B792B8985829586958695837092
:10211000682B6F5F7F4F80E090E04A854370440FEB
:102120002B8527FB222720F9422B2E812F7030E0B0
:10213000240F311D2750310904C0660F771F881FF7
:10214000991F2A95D2F7C5CF60E070E0CB01C1CFCF
:10215000688566956695862F90E0A0E0B0E07727C9
:1021600066272A85622B098510E0102F0027222779
:1021700017FD2095322F602B712B822B932B6F5FD5
:102180007F4F8F4F9F4FFAE0660F771F881F991F71
:10219000FA95D1F79ECFBC0189E00C940910BC01DF
:1021A0008AE00C9409106F927F928F929F92AF9267
:1021B000BF92CF92DF92EF92FF920F931F93CF9334
:1021C000DF93CDB7DEB7C158D1090FB6F894DEBFA3
:1021D0000FBECDBF81E00E94E80DCF57DF4F88834F
:1021E000C158D0400E9449010E948403CF57DF4F5D
:1021F0008881C158D040882309F423C160E074E08D
:1022000081E090E00E94A01290933B0480933A04F6
:102210000E94D2070E94770504E510E023E235E032
:1022200040E050E062E070E080E090E00E943D0F0E
:1022300042E050E060E070E0CE0101960E94FC07B1
:1022400020913A0430913B0469A57AA58BA59CA501
:10225000660F771F881F991F00E012E040E050E0F2
:102260000E943D0F20913A0430913B043E5F69A5E6
:102270007AA58BA59CA5660F771F881F991F6F5F96
:102280007F4F8F4F9F4F40E050E00E943D0FC09026
:102290003A04D0903B04F601A481B581AC0DBD1D7C
:1022A0001496ED91FC911597EA0FFB1F048115819F
:1022B0000E0F1F1F61E070E08EE090E00E94A01200
:1022C000809342049093430480934004909341048C
:1022D000FCEFDF1A7C01812C60E5962EA12CB12C3D
:1022E0000C151D0509F45AC0D80116966D917C9104
:1022F00017976F5F7F4F81E090E00E94A012F70177
:1023000095838483D80116964D915C911797B801F7
:10231000685F7F4F0E94FE13F80140815181628106
:102320007381D7014D935D936D937C931397CE0189
:1023300001960E94FC0760904004709041046D81FA
:102340007E818F819885A50194010E946412F3011A
:102350002287338744875587D80114968D919C91A5
:102360001597080F191F0C151D0509F468C061E0C9
:1023700070E08EE090E00E94A012F30197838683C4
:10238000DC0119967C926E92189790934104809389
:1023900040047C010C151D0509F0A6CFE091420414
:1023A000F0914304D7011796FC93EE931697F186AC
:1023B000E086F0934104E093400420E430E040E004
:1023C00050E06FE970E08FE192E00E94B10520E4F7
:1023D00030E040E050E060EA70E088E292E00E9485
:1023E000B10520E430E040E050E065ED70E08DE2C2
:1023F00092E00E94B10520E130E040E050E061EA67
:1024000070E085E392E00E94B1050E94960580E0AD
:1024100090E0CF57DF4F0FB6F894DEBF0FBECDBFB1
:10242000DF91CF911F910F91FF90EF90DF90CF90B0
:10243000BF90AF909F908F907F906F9008957301A1
:102440004FCF61E081E00E94DE0286E092E00E94D0
:10245000720181E090E0DDCFDB018F939F930E94BA
:102460009512BF91AF91A29F800D911DA39F900DDA
:10247000B29F900D11240895AA1BBB1B51E107C008
:10248000AA1FBB1FA617B70710F0A61BB70B881F04
:10249000991F5A95A9F780959095BC01CD01089593
:1024A00097FB072E16F4009407D077FD09D00E9401
:1024B0003C1207FC05D03EF4909581959F4F0895FE
:1024C000709561957F4F0895A1E21A2EAA1BBB1B40
:1024D000FD010DC0AA1FBB1FEE1FFF1FA217B307F0
:1024E000E407F50720F0A21BB30BE40BF50B661F06
:1024F000771F881F991F1A9469F7609570958095CA
:1025000090959B01AC01BD01CF010895A29FB00140
:10251000B39FC001A39F700D811D1124911DB29F17
:10252000700D811D1124911D08950E948612A59F92
:10253000900DB49F900DA49F800D911D11240895BE
:102540000F931F93CF93DF93869F8001879F100D7A
:10255000969F100D1124C8010E94BC12EC01009737
:1025600029F0A80160E070E00E94E713CE01DF913E
:10257000CF911F910F910895CF93DF9382309105F2
:1025800010F482E090E0E0918205F091830520E074
:1025900030E0A0E0B0E0309739F140815181481738
:1025A0005907B8F04817590771F482819381109741
:1025B00029F013969C938E9312972CC090938305C9
:1025C0008093820527C02115310531F0421753074A
:1025D00018F0A901DB0101C0EF019A01BD01DF0183
:1025E0000280F381E02DD7CF21153105F9F0281BAA
:1025F000390B2430310580F48A819B816115710586
:1026000021F0FB019383828304C090938305809320
:102610008205FE01329644C0FE01E20FF31F819352
:10262000919322503109398328833AC02091800543
:1026300030918105232B41F4209102023091030255
:102640003093810520938005209100023091010292
:102650002115310541F42DB73EB740910402509148
:102660000502241B350BE0918005F0918105E217EE
:10267000F307A0F42E1B3F0B2817390778F0AC01A5
:102680004E5F5F4F2417350748F04E0F5F1F509382
:102690008105409380058193919302C0E0E0F0E0D2
:1026A000CF01DF91CF910895CF93DF93009709F485
:1026B00087C0FC01329713821282C0918205D091AB
:1026C0008305209781F420813181280F391F809163
:1026D0008005909181058217930779F5F093810524
:1026E000E09380056DC0DE0120E030E0AE17BF074B
:1026F00050F412964D915C9113979D01411551052F
:1027000009F1DA01F3CFB383A28340815181840FB1
:10271000951F8A179B0771F48D919C911197840FD7
:10272000951F02969183808312968D919C911397A9
:10273000938382832115310529F4F0938305E09377
:1027400082053EC0D9011396FC93EE9312974D91EA
:102750005D91A40FB51FEA17FB0779F48081918181
:10276000840F951F0296D90111969C938E938281B6
:10277000938113969C938E931297E0E0F0E08A8108
:102780009B81009719F0FE01EC01F9CFCE01029672
:1027900028813981820F931F209180053091810516
:1027A0002817390769F4309729F41092830510929D
:1027B000820502C013821282D0938105C0938005E6
:1027C000DF91CF91089541E255E00C940D14DC01A6
:1027D00001C06D9341505040E0F70895FB01DC01CA
:1027E0008D91019080190110D9F3990B0895FB0187
:1027F000DC0101900D920020E1F70895FB01DC015E
:102800004150504048F001900D920020C9F701C09E
:102810001D9241505040E0F70895FA01A191B08116
:10282000009719F41097E1F0CD01DC01CD010D9076
:10283000002011F4C00113C0FB012191222319F0E3
:102840002015D9F7F3CFFB012191201519F41E9221
:10285000119606C02223C1F70D900020A1F7D001E8
:10286000FA01A193B0830895FC01238127FF10C0D2
:10287000E4E8F5E0208131812817390711F411824D
:102880001082329625E0EA38F207A1F70E9454132D
:1028900080E090E00895CF93DF93CDB7DEB7AE012F
:1028A000465F5F4F688579858E819F810E94E21423
:1028B000DF91CF9108958F929F92AF92BF92CF9266
:1028C000DF92EF92FF920F931F93CF93DF936B01F1
:1028D0004A017901D90113962C9121FF1DC0C0E056
:1028E000D0E0C815D905D9F08C015C01AC0CBD1C39
:1028F000C8010A151B0571F00F5F1F4FD70118960D
:10290000ED91FC911997B701DC018C911995892BF8
:1029100079F305C02196E5CF80E090E001C0CE01BB
:10292000DF91CF911F910F91FF90EF90DF90CF90AB
:10293000BF90AF909F908F900895CF93DF93CDB7C6
:10294000DEB7FE01369661917191AF0180918605E7
:10295000909187050E94E214DF91CF9108956091D4
:102960008605709187050C94F3160F931F93CF93F0
:10297000DF93E0918605F0918705238121FF1BC03D
:10298000EC0100E010E08991609186057091870567
:10299000DB011896ED91FC911997882331F0199578
:1029A000892B89F30FEF1FEFEECF8AE01995892B62
:1029B00011F4C80102C08FEF9FEFDF91CF911F91FB
:1029C0000F9108952F923F924F925F926F927F9254
:1029D0008F929F92AF92BF92CF92DF92EF92FF922F
:1029E0000F931F93CF93DF93CDB7DEB72C970FB61E
:1029F000F894DEBF0FBECDBF7C016B018A01FC01E4
:102A000017821682838181FFBDC1CE0101964C01E0
:102A1000F7019381F60193FD859193FF81916F01F9
:102A2000882309F4ABC1853239F493FD859193FF76
:102A300081916F01853229F4B70190E00E94F3166D
:102A4000E7CF512C312C20E02032A0F48B3269F0FA
:102A500030F4803259F0833269F420612CC08D3219
:102A600039F0803339F4216026C02260246023C00D
:102A7000286021C027FD27C030ED380F3A3078F4A8
:102A800026FF06C0FAE05F9E300D1124532E13C0BE
:102A90008AE0389E300D1124332E20620CC08E3215
:102AA00021F426FD6BC1206406C08C3611F4206829
:102AB00002C0883641F4F60193FD859193FF819120
:102AC0006F018111C1CF982F9F7D9554933028F4C9
:102AD0000C5F1F4FFFE3F9830DC0833631F083375E
:102AE00071F0833509F05BC022C0F80180818983D1
:102AF0000E5F1F4F44244394512C540115C03801DC
:102B0000F2E06F0E711CF801A080B18026FF03C0B7
:102B1000652D70E002C06FEF7FEFC5012C870E942A
:102B2000E8162C0183012C852F77222E17C038013F
:102B3000F2E06F0E711CF801A080B18026FF03C087
:102B4000652D70E002C06FEF7FEFC5012C870E94FA
:102B5000DD162C012C852068222E830123FC1BC04E
:102B6000832D90E048165906B0F4B70180E290E05A
:102B70000E94F3163A94F4CFF50127FC859127FEC5
:102B800081915F01B70190E00E94F31631103A94F1
:102B9000F1E04F1A51084114510471F7E5C0843631
:102BA00011F0893639F5F80127FF07C0608171817E
:102BB000828193810C5F1F4F08C0608171818827DB
:102BC00077FD8095982F0E5F1F4F2F76B22E97FFBF
:102BD00009C090958095709561957F4F8F4F9F4F5D
:102BE0002068B22E2AE030E0A4010E942517A82E0A
:102BF000A81844C0853729F42F7EB22E2AE030E091
:102C000025C0F22FF97FBF2E8F36C1F018F488351A
:102C100079F0B4C0803719F0883721F0AFC02F2F7A
:102C20002061B22EB4FE0DC08B2D8460B82E09C079
:102C300024FF0AC09F2F9660B92E06C028E030E01E
:102C400005C020E130E002C020E132E0F801B7FE2B
:102C500007C060817181828193810C5F1F4F06C024
:102C60006081718180E090E00E5F1F4FA4010E949F
:102C70002517A82EA818FB2DFF77BF2EB6FE0BC078
:102C80002B2D2E7FA51450F4B4FE0AC0B2FC08C050
:102C90002B2D2E7E05C07A2C2B2D03C07A2C01C043
:102CA000752C24FF0DC0FE01EA0DF11D80818033DB
:102CB00011F4297E09C022FF06C07394739404C0E6
:102CC000822F867809F0739423FD13C020FF06C07D
:102CD0005A2C731418F4530C5718732C731468F48B
:102CE000B70180E290E02C870E94F31673942C8544
:102CF000F5CF731410F4371801C0312C24FF12C023
:102D0000B70180E390E02C870E94F3162C8522FF08
:102D100017C021FF03C088E590E002C088E790E07B
:102D2000B7010CC0822F867859F021FD02C080E2E5
:102D300001C08BE227FD8DE2B70190E00E94F316FF
:102D4000A51438F4B70180E390E00E94F3165A947A
:102D5000F7CFAA94F401EA0DF11D8081B70190E04C
:102D60000E94F316A110F5CF332009F451CEB7011C
:102D700080E290E00E94F3163A94F6CFF701868144
:102D8000978102C08FEF9FEF2C960FB6F894DEBFAD
:102D90000FBECDBFDF91CF911F910F91FF90EF90AC
:102DA000DF90CF90BF90AF909F908F907F906F906B
:102DB0005F904F903F902F900895FC0105906150D7
:102DC00070400110D8F7809590958E0F9F1F089541
:102DD000FC016150704001900110D8F780959095EA
:102DE0008E0F9F1F08950F931F93CF93DF93182F7C
:102DF000092FEB018B8181FD03C08FEF9FEF20C076
:102E000082FF10C04E815F812C813D8142175307A4
:102E10007CF4E881F9819F012F5F3F4F398328833C
:102E2000108306C0E885F985812F1995892B29F72C
:102E30002E813F812F5F3F4F3F832E83812F902F25
:102E4000DF91CF911F910F910895FA01AA272830A1
:102E500051F1203181F1E8946F936E7F6E5F7F4F67
:102E60008F4F9F4FAF4FB1E03ED0B4E03CD0670FE3
:102E7000781F891F9A1FA11D680F791F8A1F911D36
:102E8000A11D6A0F711D811D911DA11D20D009F486
:102E900068943F912AE0269F11243019305D3193C8
:102EA000DEF6CF010895462F4770405D4193B3E0B1
:102EB0000FD0C9F7F6CF462F4F70405D4A3318F058
:102EC000495D31FD4052419302D0A9F7EACFB4E009
:102ED000A6959795879577956795BA95C9F70097C1
:102EE0006105710508959B01AC010A2E0694579562
:102EF000479537952795BA95C9F7620F731F841FB9
:0A2F0000951FA01D0895F894FFCF5F
:102F0A0000008A052000736420696E697420666176
:102F1A00696C65642E2E2E65786974696E67007017
:102F2A006C61796261636B007265616400646973E4
:102F3A00706C61790069646C650050726F677261C8
:102F4A006D20350020202020202020202020202035
:102F5A002020202020202020202020202020202067
:102F6A002020202020202020202020202020202057
:102F7A002020202020202020202020202020202047
:102F8A002020202020202020202020202020202037
:102F9A0000736F6E67206C656E6774683A20006311
:102FAA00757272656E742074696D653A2000546991
:102FBA006D653A20004E756D626572206F662074E9
:102FCA006872656164733A200054687265616420AE
:102FDA0049443A2000546872656164206E616D65E7
:102FEA003A20005468726561642050433A20307870
:102FFA0000537461636B2055736167653A20002042
:10300A00627974657300537461636B2053697A65DE
:10301A003A200043757272656E7420746F70206F67
:10302A006620737461636B3A20307800537461636D
:10303A006B20626173653A20307800537461636B68
:10304A0020656E643A2030780053636865642043D3
:10305A006F756E743A200075736167653A206578FA
:10306A00743272656164657220696D616765205B9F
:10307A005B2D6C5D20706174685D0A00096C3A20F2
:10308A007072696E7420746F20746865207363723D
:10309A0065656E2074686520636F6E74656E7473FF
:1030AA00206F6620706174680A002573206E6F7441
:1030BA0020666F756E640A002020202020202030B0
:1030CA0000202020202020202044002538640020D1
:1030DA00202020202020204600256400696E766189
:1030EA006C69642074797065203078253034580A08
:1030FA00002F006E616D65202020202020202020D6
:10310A00202020202020202020202073697A65207A
:10311A00202020207479706500496E6F64652074E0
:10312A0079706520307825303458206E6F7420739A
:0A313A007570706F727465640A000E
:00000001FF
